{
  "_format": "hh-sol-artifact-1",
  "contractName": "MockTokenVesting",
  "sourceName": "contracts/MockTokenVesting.sol",
  "abi": [
    {
      "inputs": [
        {
          "internalType": "address",
          "name": "token_",
          "type": "address"
        }
      ],
      "stateMutability": "nonpayable",
      "type": "constructor"
    },
    {
      "anonymous": false,
      "inputs": [
        {
          "indexed": true,
          "internalType": "address",
          "name": "previousOwner",
          "type": "address"
        },
        {
          "indexed": true,
          "internalType": "address",
          "name": "newOwner",
          "type": "address"
        }
      ],
      "name": "OwnershipTransferred",
      "type": "event"
    },
    {
      "anonymous": false,
      "inputs": [
        {
          "indexed": false,
          "internalType": "uint256",
          "name": "amount",
          "type": "uint256"
        }
      ],
      "name": "Released",
      "type": "event"
    },
    {
      "anonymous": false,
      "inputs": [],
      "name": "Revoked",
      "type": "event"
    },
    {
      "stateMutability": "payable",
      "type": "fallback"
    },
    {
      "inputs": [
        {
          "internalType": "address",
          "name": "holder",
          "type": "address"
        }
      ],
      "name": "computeNextVestingScheduleIdForHolder",
      "outputs": [
        {
          "internalType": "bytes32",
          "name": "",
          "type": "bytes32"
        }
      ],
      "stateMutability": "view",
      "type": "function"
    },
    {
      "inputs": [
        {
          "internalType": "bytes32",
          "name": "vestingScheduleId",
          "type": "bytes32"
        }
      ],
      "name": "computeReleasableAmount",
      "outputs": [
        {
          "internalType": "uint256",
          "name": "",
          "type": "uint256"
        }
      ],
      "stateMutability": "view",
      "type": "function"
    },
    {
      "inputs": [
        {
          "internalType": "address",
          "name": "holder",
          "type": "address"
        },
        {
          "internalType": "uint256",
          "name": "index",
          "type": "uint256"
        }
      ],
      "name": "computeVestingScheduleIdForAddressAndIndex",
      "outputs": [
        {
          "internalType": "bytes32",
          "name": "",
          "type": "bytes32"
        }
      ],
      "stateMutability": "pure",
      "type": "function"
    },
    {
      "inputs": [
        {
          "internalType": "address",
          "name": "_beneficiary",
          "type": "address"
        },
        {
          "internalType": "uint256",
          "name": "_start",
          "type": "uint256"
        },
        {
          "internalType": "uint256",
          "name": "_cliff",
          "type": "uint256"
        },
        {
          "internalType": "uint256",
          "name": "_duration",
          "type": "uint256"
        },
        {
          "internalType": "uint256",
          "name": "_slicePeriodSeconds",
          "type": "uint256"
        },
        {
          "internalType": "bool",
          "name": "_revocable",
          "type": "bool"
        },
        {
          "internalType": "uint256",
          "name": "_amount",
          "type": "uint256"
        }
      ],
      "name": "createVestingSchedule",
      "outputs": [],
      "stateMutability": "nonpayable",
      "type": "function"
    },
    {
      "inputs": [
        {
          "internalType": "address",
          "name": "holder",
          "type": "address"
        }
      ],
      "name": "getLastVestingScheduleForHolder",
      "outputs": [
        {
          "components": [
            {
              "internalType": "bool",
              "name": "initialized",
              "type": "bool"
            },
            {
              "internalType": "address",
              "name": "beneficiary",
              "type": "address"
            },
            {
              "internalType": "uint256",
              "name": "cliff",
              "type": "uint256"
            },
            {
              "internalType": "uint256",
              "name": "start",
              "type": "uint256"
            },
            {
              "internalType": "uint256",
              "name": "duration",
              "type": "uint256"
            },
            {
              "internalType": "uint256",
              "name": "slicePeriodSeconds",
              "type": "uint256"
            },
            {
              "internalType": "bool",
              "name": "revocable",
              "type": "bool"
            },
            {
              "internalType": "uint256",
              "name": "amountTotal",
              "type": "uint256"
            },
            {
              "internalType": "uint256",
              "name": "released",
              "type": "uint256"
            },
            {
              "internalType": "bool",
              "name": "revoked",
              "type": "bool"
            }
          ],
          "internalType": "struct TokenVesting.VestingSchedule",
          "name": "",
          "type": "tuple"
        }
      ],
      "stateMutability": "view",
      "type": "function"
    },
    {
      "inputs": [],
      "name": "getToken",
      "outputs": [
        {
          "internalType": "address",
          "name": "",
          "type": "address"
        }
      ],
      "stateMutability": "view",
      "type": "function"
    },
    {
      "inputs": [
        {
          "internalType": "uint256",
          "name": "index",
          "type": "uint256"
        }
      ],
      "name": "getVestingIdAtIndex",
      "outputs": [
        {
          "internalType": "bytes32",
          "name": "",
          "type": "bytes32"
        }
      ],
      "stateMutability": "view",
      "type": "function"
    },
    {
      "inputs": [
        {
          "internalType": "bytes32",
          "name": "vestingScheduleId",
          "type": "bytes32"
        }
      ],
      "name": "getVestingSchedule",
      "outputs": [
        {
          "components": [
            {
              "internalType": "bool",
              "name": "initialized",
              "type": "bool"
            },
            {
              "internalType": "address",
              "name": "beneficiary",
              "type": "address"
            },
            {
              "internalType": "uint256",
              "name": "cliff",
              "type": "uint256"
            },
            {
              "internalType": "uint256",
              "name": "start",
              "type": "uint256"
            },
            {
              "internalType": "uint256",
              "name": "duration",
              "type": "uint256"
            },
            {
              "internalType": "uint256",
              "name": "slicePeriodSeconds",
              "type": "uint256"
            },
            {
              "internalType": "bool",
              "name": "revocable",
              "type": "bool"
            },
            {
              "internalType": "uint256",
              "name": "amountTotal",
              "type": "uint256"
            },
            {
              "internalType": "uint256",
              "name": "released",
              "type": "uint256"
            },
            {
              "internalType": "bool",
              "name": "revoked",
              "type": "bool"
            }
          ],
          "internalType": "struct TokenVesting.VestingSchedule",
          "name": "",
          "type": "tuple"
        }
      ],
      "stateMutability": "view",
      "type": "function"
    },
    {
      "inputs": [
        {
          "internalType": "address",
          "name": "holder",
          "type": "address"
        },
        {
          "internalType": "uint256",
          "name": "index",
          "type": "uint256"
        }
      ],
      "name": "getVestingScheduleByAddressAndIndex",
      "outputs": [
        {
          "components": [
            {
              "internalType": "bool",
              "name": "initialized",
              "type": "bool"
            },
            {
              "internalType": "address",
              "name": "beneficiary",
              "type": "address"
            },
            {
              "internalType": "uint256",
              "name": "cliff",
              "type": "uint256"
            },
            {
              "internalType": "uint256",
              "name": "start",
              "type": "uint256"
            },
            {
              "internalType": "uint256",
              "name": "duration",
              "type": "uint256"
            },
            {
              "internalType": "uint256",
              "name": "slicePeriodSeconds",
              "type": "uint256"
            },
            {
              "internalType": "bool",
              "name": "revocable",
              "type": "bool"
            },
            {
              "internalType": "uint256",
              "name": "amountTotal",
              "type": "uint256"
            },
            {
              "internalType": "uint256",
              "name": "released",
              "type": "uint256"
            },
            {
              "internalType": "bool",
              "name": "revoked",
              "type": "bool"
            }
          ],
          "internalType": "struct TokenVesting.VestingSchedule",
          "name": "",
          "type": "tuple"
        }
      ],
      "stateMutability": "view",
      "type": "function"
    },
    {
      "inputs": [],
      "name": "getVestingSchedulesCount",
      "outputs": [
        {
          "internalType": "uint256",
          "name": "",
          "type": "uint256"
        }
      ],
      "stateMutability": "view",
      "type": "function"
    },
    {
      "inputs": [
        {
          "internalType": "address",
          "name": "_beneficiary",
          "type": "address"
        }
      ],
      "name": "getVestingSchedulesCountByBeneficiary",
      "outputs": [
        {
          "internalType": "uint256",
          "name": "",
          "type": "uint256"
        }
      ],
      "stateMutability": "view",
      "type": "function"
    },
    {
      "inputs": [],
      "name": "getVestingSchedulesTotalAmount",
      "outputs": [
        {
          "internalType": "uint256",
          "name": "",
          "type": "uint256"
        }
      ],
      "stateMutability": "view",
      "type": "function"
    },
    {
      "inputs": [],
      "name": "getWithdrawableAmount",
      "outputs": [
        {
          "internalType": "uint256",
          "name": "",
          "type": "uint256"
        }
      ],
      "stateMutability": "view",
      "type": "function"
    },
    {
      "inputs": [],
      "name": "owner",
      "outputs": [
        {
          "internalType": "address",
          "name": "",
          "type": "address"
        }
      ],
      "stateMutability": "view",
      "type": "function"
    },
    {
      "inputs": [
        {
          "internalType": "bytes32",
          "name": "vestingScheduleId",
          "type": "bytes32"
        },
        {
          "internalType": "uint256",
          "name": "amount",
          "type": "uint256"
        }
      ],
      "name": "release",
      "outputs": [],
      "stateMutability": "nonpayable",
      "type": "function"
    },
    {
      "inputs": [],
      "name": "renounceOwnership",
      "outputs": [],
      "stateMutability": "nonpayable",
      "type": "function"
    },
    {
      "inputs": [
        {
          "internalType": "bytes32",
          "name": "vestingScheduleId",
          "type": "bytes32"
        }
      ],
      "name": "revoke",
      "outputs": [],
      "stateMutability": "nonpayable",
      "type": "function"
    },
    {
      "inputs": [
        {
          "internalType": "uint256",
          "name": "_time",
          "type": "uint256"
        }
      ],
      "name": "setCurrentTime",
      "outputs": [],
      "stateMutability": "nonpayable",
      "type": "function"
    },
    {
      "inputs": [
        {
          "internalType": "address",
          "name": "newOwner",
          "type": "address"
        }
      ],
      "name": "transferOwnership",
      "outputs": [],
      "stateMutability": "nonpayable",
      "type": "function"
    },
    {
      "inputs": [
        {
          "internalType": "uint256",
          "name": "amount",
          "type": "uint256"
        }
      ],
      "name": "withdraw",
      "outputs": [],
      "stateMutability": "nonpayable",
      "type": "function"
    },
    {
      "stateMutability": "payable",
      "type": "receive"
    }
  ],
  "bytecode": "0x60a0604052600060065534801561001557600080fd5b50604051611bf9380380611bf98339810160408190526100349161009e565b600080546001600160a01b031916339081178255604051839282917f8be0079c531659141344cd1fd0a4f28419497f9722a3daafe3b4186f6b6457e0908290a350600180556001600160a01b03811661008c57600080fd5b6001600160a01b0316608052506100ce565b6000602082840312156100b057600080fd5b81516001600160a01b03811681146100c757600080fd5b9392505050565b608051611afb6100fe60003960008181610173015281816109aa01528181610c730152610e660152611afb6000f3fe6080604052600436106101175760003560e01c80638af104da1161009a578063ea1bb3d511610061578063ea1bb3d51461032b578063f2fde38b1461034b578063f51321d71461036b578063f7c469f01461038b578063f9079b37146103ab57005b80638af104da146102985780638da5cb5b146102b857806390be10cc146102d65780639ef346b4146102eb578063b75c7dc61461030b57005b806348deb471116100de57806348deb471146101eb5780635a7bb69a1461020057806366afd8ef14610236578063715018a6146102565780637e913dc61461026b57005b8063130836171461012057806317e289e91461014457806321df0da71461016457806322f8e566146101ab5780632e1a7d4d146101cb57005b3661011e57005b005b34801561012c57600080fd5b506002545b6040519081526020015b60405180910390f35b34801561015057600080fd5b5061011e61015f3660046117cd565b6103cb565b34801561017057600080fd5b507f00000000000000000000000000000000000000000000000000000000000000005b6040516001600160a01b03909116815260200161013b565b3480156101b757600080fd5b5061011e6101c6366004611834565b600655565b3480156101d757600080fd5b5061011e6101e6366004611834565b610844565b3480156101f757600080fd5b50600454610131565b34801561020c57600080fd5b5061013161021b36600461184d565b6001600160a01b031660009081526005602052604090205490565b34801561024257600080fd5b5061011e610251366004611868565b6109d8565b34801561026257600080fd5b5061011e610ca8565b34801561027757600080fd5b5061028b61028636600461184d565b610d1c565b60405161013b919061188a565b3480156102a457600080fd5b506101316102b3366004611915565b610df4565b3480156102c457600080fd5b506000546001600160a01b0316610193565b3480156102e257600080fd5b50610131610e3b565b3480156102f757600080fd5b5061028b610306366004611834565b610edc565b34801561031757600080fd5b5061011e610326366004611834565b610f83565b34801561033757600080fd5b50610131610346366004611834565b61114c565b34801561035757600080fd5b5061011e61036636600461184d565b611236565b34801561037757600080fd5b5061028b610386366004611915565b611320565b34801561039757600080fd5b506101316103a636600461184d565b61133c565b3480156103b757600080fd5b506101316103c6366004611834565b611366565b6000546001600160a01b031633146103fe5760405162461bcd60e51b81526004016103f59061193f565b60405180910390fd5b80306001600160a01b03166390be10cc6040518163ffffffff1660e01b8152600401602060405180830381865afa15801561043d573d6000803e3d6000fd5b505050506040513d601f19601f820116820180604052508101906104619190611974565b10156104e85760405162461bcd60e51b815260206004820152604a60248201527f546f6b656e56657374696e673a2063616e6e6f7420637265617465207665737460448201527f696e67207363686564756c652062656361757365206e6f742073756666696369606482015269656e7420746f6b656e7360b01b608482015260a4016103f5565b600084116105435760405162461bcd60e51b815260206004820152602260248201527f546f6b656e56657374696e673a206475726174696f6e206d757374206265203e604482015261020360f41b60648201526084016103f5565b600081116105935760405162461bcd60e51b815260206004820181905260248201527f546f6b656e56657374696e673a20616d6f756e74206d757374206265203e203060448201526064016103f5565b60018310156105fa5760405162461bcd60e51b815260206004820152602d60248201527f546f6b656e56657374696e673a20736c696365506572696f645365636f6e647360448201526c206d757374206265203e3d203160981b60648201526084016103f5565b604051630f7c469f60e41b81526001600160a01b0388166004820152600090309063f7c469f090602401602060405180830381865afa158015610641573d6000803e3d6000fd5b505050506040513d601f19601f820116820180604052508101906106659190611974565b9050600061067388886113ee565b90506040518061014001604052806001151581526020018a6001600160a01b03168152602001828152602001898152602001878152602001868152602001851515815260200184815260200160008152602001600015158152506003600084815260200190815260200160002060008201518160000160006101000a81548160ff02191690831515021790555060208201518160000160016101000a8154816001600160a01b0302191690836001600160a01b0316021790555060408201518160010155606082015181600201556080820151816003015560a0820151816004015560c08201518160050160006101000a81548160ff02191690831515021790555060e0820151816006015561010082015181600701556101208201518160080160006101000a81548160ff0219169083151502179055509050506107c3836004546113ee90919063ffffffff16565b6004556002805460018181019092557f405787fa12a823e0f2b7631cc41b3ba8828b3321ca811111fa75cd3aa3bb5ace018390556001600160a01b038a166000908152600560205260409020549061081c9082906113ee565b6001600160a01b03909a16600090815260056020526040902099909955505050505050505050565b600260015414156108975760405162461bcd60e51b815260206004820152601f60248201527f5265656e7472616e637947756172643a207265656e7472616e742063616c6c0060448201526064016103f5565b60026001556000546001600160a01b031633146108c65760405162461bcd60e51b81526004016103f59061193f565b80306001600160a01b03166390be10cc6040518163ffffffff1660e01b8152600401602060405180830381865afa158015610905573d6000803e3d6000fd5b505050506040513d601f19601f820116820180604052508101906109299190611974565b101561098b5760405162461bcd60e51b815260206004820152602b60248201527f546f6b656e56657374696e673a206e6f7420656e6f756768207769746864726160448201526a7761626c652066756e647360a81b60648201526084016103f5565b6109d16109a06000546001600160a01b031690565b6001600160a01b037f00000000000000000000000000000000000000000000000000000000000000001690836113fa565b5060018055565b60026001541415610a2b5760405162461bcd60e51b815260206004820152601f60248201527f5265656e7472616e637947756172643a207265656e7472616e742063616c6c0060448201526064016103f5565b60026001908155600083815260036020526040902054839160ff909116151514610a5457600080fd5b60008181526003602052604090206008015460ff1615610a7357600080fd5b6000838152600360205260408120805491549091336001600160a01b03610100909204821681149291909116148180610aa95750805b610b265760405162461bcd60e51b815260206004820152604260248201527f546f6b656e56657374696e673a206f6e6c792062656e6566696369617279206160448201527f6e64206f776e65722063616e2072656c656173652076657374656420746f6b656064820152616e7360f01b608482015260a4016103f5565b6040805161014081018252845460ff808216151583526001600160a01b03610100928390041660208401526001870154938301939093526002860154606083015260038601546080830152600486015460a083015260058601548316151560c0830152600686015460e083015260078601549082015260088501549091161515610120820152600090610bb890611451565b905085811015610c305760405162461bcd60e51b815260206004820152603d60248201527f546f6b656e56657374696e673a2063616e6e6f742072656c6561736520746f6b60448201527f656e732c206e6f7420656e6f7567682076657374656420746f6b656e7300000060648201526084016103f5565b6007840154610c3f90876113ee565b600785015583546004546101009091046001600160a01b031690610c63908861153d565b600455610c9a6001600160a01b037f00000000000000000000000000000000000000000000000000000000000000001682896113fa565b505060018055505050505050565b6000546001600160a01b03163314610cd25760405162461bcd60e51b81526004016103f59061193f565b600080546040516001600160a01b03909116907f8be0079c531659141344cd1fd0a4f28419497f9722a3daafe3b4186f6b6457e0908390a3600080546001600160a01b0319169055565b610d2461173e565b6001600160a01b03821660009081526005602052604081205460039190610d539085906102b3906001906119a3565b81526020808201929092526040908101600020815161014081018352815460ff808216151583526001600160a01b036101009283900416958301959095526001830154938201939093526002820154606082015260038201546080820152600482015460a082015260058201548416151560c0820152600682015460e082015260078201549281019290925260080154909116151561012082015292915050565b6040516bffffffffffffffffffffffff19606084901b1660208201526034810182905260009060540160405160208183030381529060405280519060200120905092915050565b600480546040516370a0823160e01b81523092810192909252600091610ed791906001600160a01b037f000000000000000000000000000000000000000000000000000000000000000016906370a0823190602401602060405180830381865afa158015610ead573d6000803e3d6000fd5b505050506040513d601f19601f82011682018060405250810190610ed19190611974565b9061153d565b905090565b610ee461173e565b50600090815260036020818152604092839020835161014081018552815460ff808216151583526001600160a01b0361010092839004169483019490945260018301549582019590955260028201546060820152928101546080840152600481015460a084015260058101548216151560c0840152600681015460e0840152600781015493830193909352600890920154909116151561012082015290565b6000546001600160a01b03163314610fad5760405162461bcd60e51b81526004016103f59061193f565b600081815260036020526040902054819060ff161515600114610fcf57600080fd5b60008181526003602052604090206008015460ff1615610fee57600080fd5b6000828152600360205260409020600581015460ff1615156001146110645760405162461bcd60e51b815260206004820152602660248201527f546f6b656e56657374696e673a2076657374696e67206973206e6f74207265766044820152656f6361626c6560d01b60648201526084016103f5565b6040805161014081018252825460ff808216151583526001600160a01b03610100928390041660208401526001850154938301939093526002840154606083015260038401546080830152600484015460a083015260058401548316151560c0830152600684015460e0830152600784015490820152600883015490911615156101208201526000906110f690611451565b905080156111085761110884826109d8565b60006111258360070154846006015461153d90919063ffffffff16565b600454909150611135908261153d565b6004555050600801805460ff191660011790555050565b600081815260036020526040812054829060ff16151560011461116e57600080fd5b60008181526003602052604090206008015460ff161561118d57600080fd5b600083815260036020818152604092839020835161014081018552815460ff808216151583526001600160a01b0361010092839004169483019490945260018301549582019590955260028201546060820152928101546080840152600481015460a084015260058101548216151560c0840152600681015460e0840152600781015493830193909352600883015416151561012082015261122e90611451565b949350505050565b6000546001600160a01b031633146112605760405162461bcd60e51b81526004016103f59061193f565b6001600160a01b0381166112c55760405162461bcd60e51b815260206004820152602660248201527f4f776e61626c653a206e6577206f776e657220697320746865207a65726f206160448201526564647265737360d01b60648201526084016103f5565b600080546040516001600160a01b03808516939216917f8be0079c531659141344cd1fd0a4f28419497f9722a3daafe3b4186f6b6457e091a3600080546001600160a01b0319166001600160a01b0392909216919091179055565b61132861173e565b6113356103068484610df4565b9392505050565b6001600160a01b038116600090815260056020526040812054611360908390610df4565b92915050565b600061137160025490565b82106113c95760405162461bcd60e51b815260206004820152602160248201527f546f6b656e56657374696e673a20696e646578206f7574206f6620626f756e646044820152607360f81b60648201526084016103f5565b600282815481106113dc576113dc6119ba565b90600052602060002001549050919050565b600061133582846119d0565b604080516001600160a01b038416602482015260448082018490528251808303909101815260649091019091526020810180516001600160e01b031663a9059cbb60e01b17905261144c908490611549565b505050565b60008061145d60065490565b90508260400151811080611478575061012083015115156001145b156114865750600092915050565b60808301516060840151611499916113ee565b81106114b35761010083015160e08401516113359161153d565b60006114cc84606001518361153d90919063ffffffff16565b60a085015190915060006114e0838361161b565b905060006114ee8284611627565b905060006115178860800151611511848b60e0015161162790919063ffffffff16565b9061161b565b90506115318861010001518261153d90919063ffffffff16565b98975050505050505050565b600061133582846119a3565b600061159e826040518060400160405280602081526020017f5361666545524332303a206c6f772d6c6576656c2063616c6c206661696c6564815250856001600160a01b03166116339092919063ffffffff16565b80519091501561144c57808060200190518101906115bc91906119e8565b61144c5760405162461bcd60e51b815260206004820152602a60248201527f5361666545524332303a204552433230206f7065726174696f6e20646964206e6044820152691bdd081cdd58d8d9595960b21b60648201526084016103f5565b60006113358284611a05565b60006113358284611a27565b606061122e848460008585843b61168c5760405162461bcd60e51b815260206004820152601d60248201527f416464726573733a2063616c6c20746f206e6f6e2d636f6e747261637400000060448201526064016103f5565b600080866001600160a01b031685876040516116a89190611a76565b60006040518083038185875af1925050503d80600081146116e5576040519150601f19603f3d011682016040523d82523d6000602084013e6116ea565b606091505b50915091506116fa828286611705565b979650505050505050565b60608315611714575081611335565b8251156117245782518084602001fd5b8160405162461bcd60e51b81526004016103f59190611a92565b60405180610140016040528060001515815260200160006001600160a01b031681526020016000815260200160008152602001600081526020016000815260200160001515815260200160008152602001600081526020016000151581525090565b80356001600160a01b03811681146117b757600080fd5b919050565b80151581146117ca57600080fd5b50565b600080600080600080600060e0888a0312156117e857600080fd5b6117f1886117a0565b96506020880135955060408801359450606088013593506080880135925060a088013561181d816117bc565b8092505060c0880135905092959891949750929550565b60006020828403121561184657600080fd5b5035919050565b60006020828403121561185f57600080fd5b611335826117a0565b6000806040838503121561187b57600080fd5b50508035926020909101359150565b815115158152610140810160208301516118af60208401826001600160a01b03169052565b5060408301516040830152606083015160608301526080830151608083015260a083015160a083015260c08301516118eb60c084018215159052565b5060e083810151908301526101008084015190830152610120928301511515929091019190915290565b6000806040838503121561192857600080fd5b611931836117a0565b946020939093013593505050565b6020808252818101527f4f776e61626c653a2063616c6c6572206973206e6f7420746865206f776e6572604082015260600190565b60006020828403121561198657600080fd5b5051919050565b634e487b7160e01b600052601160045260246000fd5b6000828210156119b5576119b561198d565b500390565b634e487b7160e01b600052603260045260246000fd5b600082198211156119e3576119e361198d565b500190565b6000602082840312156119fa57600080fd5b8151611335816117bc565b600082611a2257634e487b7160e01b600052601260045260246000fd5b500490565b6000816000190483118215151615611a4157611a4161198d565b500290565b60005b83811015611a61578181015183820152602001611a49565b83811115611a70576000848401525b50505050565b60008251611a88818460208701611a46565b9190910192915050565b6020815260008251806020840152611ab1816040850160208701611a46565b601f01601f1916919091016040019291505056fea2646970667358221220dfc7ded3c4c5cfe57a64812f0eff4c2c24da853dcfb4d757784e5f5dc0e60ff164736f6c634300080b0033",
  "linkReferences": {},
  "deployedLinkReferences": {}
}